:100000000C94C8090C94E5090C94E5090C94E509D5
:100010000C94E5090C94E5090C94E5090C94E509A8
:100020000C94E5090C94E5090C94E5090C94E50998
:100030000C94E5090C94E5090C94E5090C94E50988
:100040000C94950F0C94E5090C94E5090C94E509C2
:100050000C94E7090C943A0A0C94970A0C94E5095D
:100060000C94E5090C94E5090C94E5090C94E50958
:100070000C94E5090C94E5090C94E509000089113C
:1000800012239B322446AD573665BF74488CC19D00
:100090005AAFD3BE6CCAE5DB7EE9F7F881100801E0
:1000A00093331A22A5562C47B7753E64C99C408DE0
:1000B000DBBF52AEEDDA64CBFFF976E802218B307C
:1000C000100299132667AF763444BD554AADC3BCC0
:1000D000588ED19F6EEBE7FA7CC8F5D983310A20A0
:1000E00091121803A7772E66B5543C45CBBD42ACA0
:1000F000D99E508FEFFB66EAFDD874C904428D5338
:1001000016619F702004A9153227BB364CCEC5DF7F
:100110005EEDD7FC6888E1997AABF3BA85520C435F
:1001200097711E60A1142805B3373A26CDDE44CF5F
:10013000DFFD56ECE9986089FBBB72AA06638F72FB
:1001400014409D512225AB343006B9174EEFC7FE3F
:100150005CCCD5DD6AA9E3B8788AF19B87730E621F
:1001600095501C41A3352A24B1163807CFFF46EE1F
:10017000DDDC54CDEBB962A8F99A708B08848195C7
:100180001AA793B62CC2A5D33EE1B7F04008C9190F
:10019000522BDB3A644EED5F766DFF7C89940085CF
:1001A0009BB712A6ADD224C3BFF136E0C1184809EF
:1001B000D33B5A2AE55E6C4FF77D7E6C0AA583B46B
:1001C000188691972EE3A7F23CC0B5D14229CB38CF
:1001D000500AD91B666FEF7E744CFD5D8BB502A48F
:1001E00099961087AFF326E2BDD034C1C3394A28AF
:1001F000D11A580BE77F6E6EF55C7C4D0CC685D727
:100200001EE597F42880A1913AA3B3B2444ACD5B8E
:100210005669DF78600CE91D722FFB3E8DD604C74E
:100220009FF516E4A9902081BBB332A2C55A4C4B6E
:10023000D7795E68E11C680DF33F7A2E0EE787F6EA
:100240001CC495D52AA1A3B03882B193466BCF7A4E
:100250005448DD59622DEB3C700EF91F8FF706E60E
:100260009DD414C5ABB122A0B9923083C77B4E6A2E
:10027000D5585C49E33D6A2CF11E780F0908080542
:100280000000000000000000015F0000000000000E
:10029000000307000700000000000710741F147C13
:1002A00017040005444AFF522200000008040A2AED
:1002B0001408142A28063649493628400000010748
:1002C00000000000000000027E810000000000002D
:1002D00002817E000000000000060014083E0814A1
:1002E0000000060008083E080800000280600000C8
:1002F0000000000003101010000000000002006069
:1003000000000000000003601C0300000000000467
:100310003E41413E000000000400427F40000000DA
:10032000000461514946000000000441494936007B
:10033000000000051814127F10000000044F494906
:100340003100000000043E49493000000000044133
:10035000310D03000000000436494936000000005A
:10036000040649493E0000000002006C0000000045
:10037000000002806C000000000000060010282829
:1003800028440000062828282828280000060044C1
:100390002828281000000401510906000000000769
:1003A0003C4299A5BD221C0006701C13131C700052
:1003B00000057F49494E30000000061C22414141A2
:1003C000220000067F414141221C0000057F49496F
:1003D0004941000000057F09090901000000061CD1
:1003E000224149497A0000067F080808087F00007A
:1003F00003417F4100000000000340413F00000036
:100400000000057F08142241000000047F404040A6
:1004100000000000077F030C300C037F00067F0202
:100420000408107F0000061C224141221C00000528
:100430007F1111110E000000061C224161629C0018
:1004400000057F0919294600000005464949493140
:100450000000000501017F0101000000063F40404F
:1004600040403F0000060718606018070000071FA3
:10047000601C031C601F0004631C1C630000000060
:10048000050106780601000000046159454300009B
:100490000000027F4100000000000003031C600018
:1004A0000000000002417F0000000000000504027F
:1004B0000102040000000100000000000000000430
:1004C00000010204000000000420545478000000E1
:1004D00000047F4848300000000003384444000016
:1004E000000000043048487F0000000004385454E5
:1004F0005800000000037E090900000000000418F5
:10050000A4A47C00000000047F0808700000000024
:10051000017A000000000000000288FA00000000DC
:100520000000047F10284400000000017F0000004C
:1005300000000000067C04380C04780000047C04F1
:10054000047800000000043844443800000000042F
:10055000F84848300000000004304848F800000027
:1005600000037C08040000000000034C54640000F9
:10057000000000023E44000000000000043C404037
:100580007C00000000050438403804000000071C0F
:1005900060300C30601C0003443844000000000050
:1005A000050C10E0100C0000000364544C00000027
:1005B000000003083641000000000002007F000038
:1005C000000000000341360800000000000610088B
:1005D000081010080000023E3E000000000000234A
:1005E00011100900000000000000000000000000E1
:1005F00000000000000000000000000000000000FB
:10060000000000000003FF1DFF1DFF1D0000000093
:1006100000000000000000000000000000000000DA
:100620000000000000000000071F001F001F000066
:10063000001F001F001F000000000000000000005D
:1006400000000000000000000000000B0001101975
:1006500090073C0113011001101990073C01130190
:100660001000000000000000000000000000093839
:100670000C7C1CFE3CC630FF7FC6319E3F9C1F1881
:100680000F0000000000000000000000000000005B
:10069000000F7E00FF0081008110FF1C3E0F8003D1
:1006A000E0003800DE0FE71F21102010E01FC00718
:1006B000000000000C8007DE0FFE1FFF1CF319B3C3
:1006C0001F1F0F1E0ECE0FC01F8018001800000045
:1006D00000000000000000031F001F001F000000BA
:1006E000000000000000000000000000000000000A
:1006F0000000000000000000000005E003FC1F1ED9
:100700003C03600140000000000000000000000009
:100710000000000000000000000000000005014093
:1007200003601E3CFC1FE00300000000000000000E
:1007300000000000000000000000000000000000B9
:100740000720006007C001F800C00160072000001A
:100750000000000000000000000000000000000099
:1007600000000008800180018001F00FF00F80017F
:100770008001800100000000000000000000000077
:1007800000000000000003009C00FC007C00000052
:100790000000000000000000000000000000000059
:1007A00000000000000000000005800180018001C1
:1007B0008001800100000000000000000000000037
:1007C00000000000000000000000000003001C000A
:1007D0001C001C00000000000000000000000000E1
:1007E0000000000000000000000000000000000504
:1007F000001CC01FFC077F00070000000000000075
:1008000000000000000000000000000000000000E8
:10081000000009F803FE0FFF1F071C0318071CFF49
:100820001FFE0FF8030000000000000000000000A1
:100830000000000000090C1806180718FF1FFF1F12
:10084000FF1F001800180018000000000000000042
:100850000000000000000000090C1C0E1E0F1F8786
:100860001BC319E318FF187E181C180000000000B5
:100870000000000000000000000000090C060E0E41
:100880000F1E671C6318F318FF1FDE0F9C07000084
:1008900000000000000000000000000000000A80CE
:1008A00003E00370031C030F03FF1FFF1FFF1F0064
:1008B0000300030000000000000000000000000032
:1008C00000097F067F0E631E331C3318731CF31F51
:1008D000E30FC0070000000000000000000000005F
:1008E0000000000009F803FC0FFE0F471C6318E32B
:1008F0001CE71FC60F840700000000000000000076
:10090000000000000000000903000300031C831F17
:10091000E31FF3017F001F0007000000000000003C
:1009200000000000000000000000099C07FE0FFF0F
:100930001F631863186318FF1FFE0F9C0700000059
:1009400000000000000000000000000000093C045E
:100950007E0CFF1CE718C318671CFF0FFE0FF8037F
:100960000000000000000000000000000000000087
:1009700003381C381C381C00000000000000000078
:100980000000000000000000000000000000000067
:1009900000000003389C38FC387C00000000000098
:1009A0000000000000000000000000000000000047
:1009B00000000000000009C003C003C0036006601F
:1009C00006700E300C300C181800000000000000FB
:1009D00000000000000000000009600660066006DC
:1009E00060066006600660066006600600000000A3
:1009F000000000000000000000000000091818308E
:100A00000C300C700E60066006C003C003C003000B
:100A10000000000000000000000000000000000ACC
:100A20000C000E000E00071D831DC31DE7007F0094
:100A30003E001C000000000000000000000000005C
:100A4000000011C007F00F38180C308627E24F73F2
:100A50004C114811481146E147F16FF32806280E62
:100A600006FC03F0010D0010001EC01FF80FFF036D
:100A70001F0307031F03FF03F80FC01F001E001012
:100A800000000000000000000CFF1FFF1FFF1F639D
:100A9000186318631863186318FF1CFE1F9C0F006F
:100AA00007000000000000000000000CF001FC073F
:100AB000FE0F0F0E071C031803180318071C0E0E59
:100AC0000E0E0404000000000000000000000CFFF7
:100AD0001FFF1FFF1F0318031803180318071C0E1E
:100AE0000EFE0FFC07F001000000000000000000F7
:100AF000000BFF1FFF1FFF1F6318631863186318A5
:100B00006318631863180318000000000000000059
:100B1000000000000AFF1FFF1FFF1F630063006348
:100B20000063006300630063000000000000000039
:100B3000000000000000000DF001FC07FE0F0E0E8B
:100B4000071C03180318C318C318C71CCE0FCE0FF9
:100B5000C40700000000000000000BFF1FFF1FFF84
:100B60001F60006000600060006000FF1FFF1FFF4B
:100B70001F00000000000000000000000003FF1F35
:100B8000FF1FFF1F00000000000000000000000029
:100B90000000000000000000000000000000000055
:100BA0000A0006000E001E001C03180318031CFF99
:100BB0001FFF0FFF07000000000000000000000002
:100BC0000000000DFF1FFF1FFF1FE000600070000E
:100BD000F801DC038E07070E031C0118011000004A
:100BE0000000000000000AFF1FFF1FFF1F00180089
:100BF0001800180018001800180018000000000065
:100C00000000000000000000000FFF1FFF1FFF1F7B
:100C10000F007E00F003801F001E801FF0037E0087
:100C20000F00FF1FFF1FFF1F000000000BFF1FFF33
:100C30001FFF1F1F007C00F001C007001EFF1FFFE9
:100C40001FFF1F0000000000000000000000000D5A
:100C5000F001FC07FE0F0E0E071C03180318031803
:100C6000071C0E0EFE0FFC07F00100000000000044
:100C700000000BFF1FFF1FFF1F6300630063006383
:100C80000077007F003E001C000000000000000014
:100C900000000000000DF001FC07FE0F0E1E071CF7
:100CA000033803F803F807DC0E9EFE8FFC87F00183
:100CB00000000000000000000CFF1FFF1FFF1F636B
:100CC0000063006300E300F303FF0F3E1F1C1C00E2
:100CD00010000000000000000000000B00061C0EC9
:100CE0003E0E7F1C73186318E318E71CCF1FCE0F4E
:100CF0008C070000000000000000000000000B0353
:100D000000030003000300FF1FFF1FFF1F0300037A
:100D100000030003000000000000000000000000CD
:100D2000000BFF03FF0FFF0F001C00180018001836
:100D3000001CFF0FFF0FFF03000000000000000079
:100D4000000000000D03000F007F00FC01E0070021
:100D50001F001C001FE00FF8017F000F00030000C0
:100D6000000000000000001107007F00FF07F01FD7
:100D7000001EC01FFC0FFF000F00FF00FC0FC01F74
:100D8000001EF01FFF077F0007000D011003180F62
:100D90001E1E0FBC07F001E000F001FC071E0F0F44
:100DA0001E0318011000000000000000000B0100ED
:100DB00007001F007C00F01FE01FF01F7C001F00D9
:100DC000070001000000000000000000000000001B
:100DD00009031C031E831FC31BF3197B183F180F45
:100DE00018071800000000000000000000000000CC
:100DF00000000005FF7FFF7F01400140014000002F
:100E000000000000000000000000000000000000E2
:100E1000000000000000050700FF00FC0F807F00BD
:100E2000780000000000000000000000000000004A
:100E300000000000000000000005014001400140EA
:100E4000FF7FFF7F000000000000000000000000A6
:100E500000000000000000000000000009C000F0D9
:100E6000003E000F0003000F003E00F000C0000035
:100E70000000000000000000000000000000000B67
:100E80000040004000400040004000400040004062
:100E90000040004000400000000000000000000092
:100EA0000000050100030007000600040000000028
:100EB0000000000000000000000000000000000032
:100EC00000000000000A200F301FB81F9819981961
:100ED000980DF80FF01FE01F001800000000000040
:100EE00000000000000000000AFF1FFF1FFF1F603E
:100EF0000C30183018701CF01FE00FC00700000005
:100F000000000000000000000000000A0000C00F08
:100F1000E01FF03F703830303038703C601C400CBF
:100F200000000000000000000000000000000AC0F7
:100F300007E00FF01F701C30183008600CFF1FFF17
:100F40001FFF1F0000000000000000000000000064
:100F50000009E007F00FF81FB81D9819B819F81D1F
:100F6000F00DC005000000000000000000000000BF
:100F700000000000063000FE1FFF1FFF1F3300337C
:100F80000000000000000000000000000000000061
:100F9000000000000000000AE047F0CFF8DF389CB6
:100FA0001898189830CCF8FFF8FFF87F0000000080
:100FB000000000000000000000000AFF1FFF1FFFEC
:100FC0001F6000200030007000F01FE01FC01F00F5
:100FD0000000000000000000000000000003F71FF8
:100FE000F71FF71F000000000000000000000000D5
:100FF00000000000000000000000000000000000F1
:10100000040080F7FFF7FFF77F00000000000000FA
:1010100000000000000000000000000000000000D0
:101020000000000AFF1FFF1FFF1F8001C000E00338
:10103000B00F181E081C0010000000000000000087
:1010400000000000000003FF1FFF1FFF1F00000043
:101050000000000000000000000000000000000090
:101060000000000000000000000FF81FF81FF81F2C
:10107000300018003800F81FF81FE01F300018007B
:101080003800F81FF81FE01F000000000AF81FF8E2
:101090001FF81F3000100018003800F81FF01FE084
:1010A0001F00000000000000000000000000000A17
:1010B000C003F00FF00F381C18181818381CF80F60
:1010C000F00FE0030000000000000000000000003E
:1010D00000000AF8FFF8FFF8FF300C18181818384D
:1010E0001CF81FF00FE007000000000000000000E7
:1010F00000000000000AE007F00FF81F381C181865
:101100001818300CF8FFF8FFF8FF0000000000008E
:10111000000000000000000007F81FF81FF81F3053
:101120000018001800180000000000000000000077
:101130000000000000000000000000097004F00C36
:10114000F81DD8199819981BB81F300F200E0000F1
:101150000000000000000000000000000000061871
:1011600000FC0FFE1FFE1F181818180000000000DA
:10117000000000000000000000000000000000006F
:10118000000AF807F80FF81F001C00180008000CF0
:10119000F81FF81FF81F000000000000000000000A
:1011A000000000000A3800F800F003C01F001F0014
:1011B0001C801FF007F8003800000000000000004D
:1011C000000000000000000F1800F801F01F001FD1
:1011D000001EE00FF8003800F801C01F001C801F3F
:1011E000F80FF8000800000000000B08101818386D
:1011F0001C700FE003C003E007700F381C181808BC
:10120000100000000000000000000000000A0800BC
:101210003880F881E0C700FF007C803FF007F800CD
:101220003800000000000000000000000000000086
:1012300008181C181E181F981BD819F81878183889
:101240001800000000000000000000000000000086
:10125000000000068000C001FE3F3F7E01400140CB
:10126000000000000000000000000000000000007E
:1012700000000000000002FF7FFF7F000000000070
:10128000000000000000000000000000000000005E
:1012900000000000000000000006014001403F7E09
:1012A000FE3FC001800000000000000000000000C0
:1012B00000000000000000000000000009C0006005
:1012C0000060006000C000C00180018001C000001B
:1012D0000000000000000000000000000000000509
:1012E000FF1F011001100110FF1F0000000000008F
:1012F00000000000000000000000000000000000EE
:1013000000000F0F10071E003F00330033003300B2
:101310003F001E00280D180DE00000F80300BC0778
:10132000000E0E00060C00071C00031800071C002E
:10133000060C000E0E00BC0700F80300E000000DD4
:10134000FEFF3F020020FAFF2F0A08280A08280A99
:101350000828FAFF2F0A08280A08280A0828FAFF8E
:101360002F020020FEFF3F0DFEFF3F020020FAFF8C
:101370002F121030121030222020E2FF3F42404056
:1013800042404082808082FFFF020020FEFF3F003B
:1013900011241FBECFEFD8E0DEBFCDBF11E0A0E02B
:1013A000B1E0E4E3F1E302C005900D92A832B10789
:1013B000D9F711E0A8E2B1E001C01D92A73DB10745
:1013C000E1F70E942C170C9498180C9400001F92BF
:1013D0000F920FB60F9211242F933F934F935F9369
:1013E0006F937F938F939F93AF93BF93CF93DF932D
:1013F000EF93FF93E0912801F09129018091C000C3
:101400004091C60084FF04C08281938184601DC026
:101410008581C82FD0E0848190E08F5B9F4F22E4CC
:1014200030E0B9010E945318C817D90781F0DF01D5
:10143000AC0FBD1F16964C93CE010196B9010E94C8
:101440005318858382819381816093838283FF9186
:10145000EF91DF91CF91BF91AF919F918F917F914C
:101460006F915F914F913F912F910F900FBE0F9011
:101470001F9018951F920F920FB60F9211248F9301
:101480009F93AF93BF93CF93DF93EF93FF93E0913D
:101490002801F09129018181823090F0EF01C85B31
:1014A000DF4FA881B981CD01019699838883119678
:1014B0008C9111978093C60081818150818306C0F1
:1014C0008091C1008F7D8093C1001182FF91EF91C7
:1014D000DF91CF91BF91AF919F918F910F900FBEF0
:1014E0000F901F901895FC018081882329F46623B2
:1014F00011F05C9A08955C980895FC011182608354
:1015000013821282662379F4909329018093280133
:101510001092C5002BE02093C4002091C100286DDB
:101520002093C100549A60E00E94730A08951F92AC
:101530000F920FB60F9211242F933F934F935F9307
:101540006F937F938F939F93AF93BF93EF93FF938B
:10155000809128019091290160E00E94730AE09136
:101560002801F0912901828193818D7F9383828369
:10157000FF91EF91BF91AF919F918F917F916F916B
:101580005F914F913F912F910F900FBE0F901F9041
:1015900018950895CF93DF93FC0181818823E9F4A6
:1015A000418382819381826093838283EF01C85B50
:1015B000DF4F798368838081882389F4CF0161E0DC
:1015C0000E94730AE881F98180818093C60080912E
:1015D000C10080628093C10002C080E001C081E050
:1015E000DF91CF910895FC01828181FD08C081E0E7
:1015F00090E02181222329F480E090E0089581E0A9
:1016000090E00895FC018281817008950F931F93EB
:10161000CF93DF93FC019B0140E0C2E4D0E013C014
:101620008901040F111DBF01680F711DDB011696A2
:101630008C91D8018C93848190E00196BE010E9428
:10164000531884834F5F84819581981749F72281CD
:1016500033812E7F33832283842FDF91CF911F919B
:101660000F910895FC0184819581981739F4828146
:1016700093818E7F9383828380E00895DF01A80F9A
:10168000B11D16968C91DB018C93848190E00196BC
:1016900062E470E00E94531884839581981739F4AE
:1016A000828193818E7F9383828381E0089581E09C
:1016B0000895FC01DC01169682E41D928150E9F741
:1016C00014821582828193818E7F93838283089511
:1016D0002F923F924F925F926F927F928F929F9242
:1016E000AF92BF92CF92DF92EF92FF920F931F9330
:1016F000DF93CF93CDB7DEB727970FB6F894DEBF51
:101700000FBECDBF8C01FC01828193818930910590
:1017100009F453C08A30910520F48730910549F4CB
:1017200035C08A30910509F49BC08B30910509F4CE
:101730005CC01B82B9E02B2E312C200E311EA8E597
:10174000EA2EF12CE00EF11EF7E5CF2ED12CC00EC3
:10175000D11EE1E0AE2EB12C98012D563F4F3D83B6
:101760002C8370E7872E912C800E911EC801875A1A
:101770009F4F9F838E8365E5662E712C600E711ED0
:1017800053E5452E512C400E511EA7C189E090E033
:10179000F80193838283EB58FF4F4081C80109967B
:1017A000442321F0B80169587F4F04C0B801625743
:1017B0007F4F43E00E94CA0A98C1C80109960E945F
:1017C000F30A813009F491C1F801EA58FF4F808192
:1017D000882329F0815080838BE090E002C081E073
:1017E00090E0F8019383828380C149E0E42EF12CDC
:1017F000E00EF11EC7010E94020B882309F475C197
:10180000C701BE016F5F7F4F0E94320B89818A3909
:1018100031F484E090E0F8019383828312C0863033
:1018200021F4F801EA58FF4F108281E090E0F801BE
:1018300093838283E85AFF4F1082F801E95AFF4FE1
:101840001082F801EA58FF4F8081882309F04DC1CA
:10185000F801EB58FF4F1082F801EC58FF4F3FC0E2
:10186000C8018D569F4F0E941210882369F539E0F8
:10187000E32EF12CE00EF11EC7010E94020B88231B
:1018800009F433C1F8018681882309F02EC1C7010C
:10189000BE016F5F7F4F0E94320B29812A3989F484
:1018A00084E090E0F80193838283D801A85ABF4F67
:1018B0008C91E80FF11DE75AFF4F20838F5F8C93C7
:1018C00014C1263009F011C181E090E0F801938342
:1018D0008283E85AFF4F1082F801E95AFF4F1082C5
:1018E00004C1C1010E94020B882309F4FEC0F80163
:1018F0008681882309F014C1C101BE016F5F7F4F4B
:101900000E94320BF7018081882329F499819A394A
:1019100009F0AEC01DC08130D9F4298127FF10C065
:1019200030E02F77F801848190E08F77907028174E
:10193000390709F09DC027E030E0338322839BC044
:10194000F2012083118225E030E0F8013383228305
:10195000F801228133812530310509F091C08230B0
:1019600061F48981882319F4B382A2827CC0833414
:1019700008F07EC0F601808383C08330C1F42981E2
:1019800027FD76C0F30120831182222309F478C059
:1019900030E0F801848190E08F7790702817390744
:1019A00009F46EC026E030E03383228369C08430BE
:1019B000E9F4498150E0CA01807F907024E0880FEB
:1019C000991F2A95E1F7F20120813181822B932B17
:1019D000918380834F705070542F4427F30180818E
:1019E0009181482B592B518340834AC0853008F49C
:1019F00047C090E0F6016081462F50E09A012F5FCA
:101A00003F4F8217930729F48981F4011082818363
:101A100037C04E5F5F4F8417950739F5898190E095
:101A2000F40120813181822B932B918380836F5F1E
:101A30008E819F810E941B10F401208131818217C9
:101A40009307B1F421E0F8012683F30180819181AD
:101A5000009749F0F6E0FA83C101BE016E5F7F4F47
:101A600041E00E94CA0AF70109C04817590744F427
:101A7000F801B382A282F7011082F601108250C0F1
:101A8000F7012081F801E20FF11DE75AFF4F89812C
:101A900080832F5FF7012083F80182819381863054
:101AA0009105F1F5F601808190E0019630E0821712
:101AB0009307B4F5F801B382A282F7011082F60110
:101AC00010828C819D8163E070E00E94EF0F2AE01C
:101AD00030E0F8013383228323C0F8018681882314
:101AE00021F4FB81F23009F0FCCEF80186812796C3
:101AF0000FB6F894DEBF0FBECDBFCF91DF911F911F
:101B00000F91FF90EF90DF90CF90BF90AF909F909C
:101B10008F907F906F905F904F903F902F9008959F
:101B2000FB81FF5FFB83D9CFEF92FF920F931F934F
:101B3000DF93CF93CDB7DEB728970FB6F894DEBF0B
:101B40000FBECDBF8C018AE98983F80184818A8325
:101B500085E08B831C821D8285EF8E837E01089435
:101B6000E11CF11CC70166E00E941B109F8388875F
:101B7000075F1F4FC801B70148E00E94CA0A8823C7
:101B800039F0C8010E94F30A8823D9F781E001C027
:101B900080E028960FB6F894DEBF0FBECDBFCF9180
:101BA000DF911F910F91FF90EF900895FC016483E6
:101BB000E257FF4F2AE92083FC01E157FF4F6F777F
:101BC000608380579F4FFC011082089521E030E030
:101BD000FC0133832283EA58FF4F1082FC013183DA
:101BE000208309960E947D0A0895CF93DF93EC012C
:101BF00009960E94590B81E090E09B838A83FE0145
:101C0000E85AFF4F1082C95ADF4F1882DF91CF91F7
:101C100008950E94680B0895EF92FF921F93CF934F
:101C2000DF93FC018681882379F1DF01AD5ABF4F34
:101C30008D919C91DB018D939C9310E0DF01A95A5B
:101C4000BF4F0CC07901E60EF71E6E0F7F1F625A60
:101C50007F4FEB018881E70188831F5F612F70E070
:101C60008C9190E004976817790764F316821C92B0
:101C7000DF01A85ABF4F1C9281E090E093838283DA
:101C8000FA01108381E001C080E0DF91CF911F91C4
:101C9000FF90EF9008956F927F928F929F92AF92F4
:101CA000BF92DF92EF92FF920F931F93DF93CF9338
:101CB0000F92CDB7DEB78C013B01D42E4901DC0178
:101CC0008D919C9111978230910551F58FEF898309
:101CD00099E0E92EF12CE00EF11EC701BE016F5F05
:101CE0007F4F41E00E94CA0A882321F0C7010E9469
:101CF000F30AFACF81E0A82EB12CF801B182A082BC
:101D0000C7010E94590BD8011396BC92AE9212974C
:101D1000F801E85AFF4F1082F801E95AFF4F10828C
:101D20008D2D8150803108F060C0D801AC58BF4F74
:101D30001C92F801E958FF4F8AE9808398012858DE
:101D40003F4FF80184818F77F9018083F801E758CC
:101D5000FF4F8D2D8C5F8083F801E658FF4F862D55
:101D60008F778083F801E558FF4FC30180709F7023
:101D70009083F801EB58FF4F85E080837F01AD0130
:101D8000D7016C91FA012081F801E60FF11DE958A5
:101D9000FF4FC401820F911DDC018C9180832F5F66
:101DA000FA0120836F5FD7016C93DA9449F7C80179
:101DB00089589F4F0E941B10F7012081F801E20F04
:101DC000F11DE958FF4F90832F5FF801E20FF11DDD
:101DD000E958FF4F80832F5FD7012C93F801EA5811
:101DE000FF4F83E0808381E001C080E00F90CF91BE
:101DF000DF911F910F91FF90EF90DF90BF90AF9018
:101E00009F908F907F906F9008950F931F93CF9323
:101E1000DF93EC01FC01EC58FF4F108289589F4F73
:101E20002AE9FC012083FE01E858FF4F2C812F771F
:101E30002083FE01E758FF4F25E02083FE01E6588E
:101E4000FF4F262F2F772083FE01E558FF4F60704C
:101E50007F707083FE01E458FF4F20EF20838E01D6
:101E60000B581F4F26E0F801208366E00E941B10EC
:101E7000F8012081FE01E20FF11DE958FF4F908328
:101E80002F5FC20FD11DC958DF4F88832F5FF80124
:101E9000208381E0DF91CF911F910F91089541E060
:101EA000FC01228133812130310509F040E0842F8B
:101EB00008950F931F93CF93DF93EC0182E090E09E
:101EC0009983888380E00E94E00F83B7817F83BF7E
:101ED00083B7816083BF889583B78E7F83BF8E0170
:101EE000075F1F4FC8010E94020B882321F081E089
:101EF00090E09983888383E397E00197F1F7C80125
:101F00000E94590B81E090E09B838A83FE01E85A8E
:101F1000FF4F1082C95ADF4F188281E00E94E00F04
:101F2000DF91CF911F910F9108951F920F920FB6DD
:101F30000F9211248F939F93AF93BF93EF93FF93CF
:101F4000EFECF1E0A081B181109771F08D919C913F
:101F50001197019711969C938E938D919C91119757
:101F6000009711F411821082329681E0E73DF80764
:101F700049F7FF91EF91BF91AF919F918F910F9092
:101F80000FBE0F901F9018951092D0011092CF01A4
:101F90001092D2011092D1011092D4011092D3016B
:101FA0001092D6011092D5018DE887BD82E084BDE4
:101FB00085E085BDEEE6F0E0808182608083089553
:101FC000882331F080912C01882341F085BD08954C
:101FD00085B580932C0185B5887F85BD0895FC016A
:101FE00080819181009719F07183608313C07183A0
:101FF0006083AFECB1E080E090E02D913D91211540
:10200000310551F4DC01AA0FBB1FA153BE4F11963D
:10201000FC93EE9381E0089501968430910569F771
:1020200080E00895FC012081318181E02115310596
:1020300009F080E00895DC0120E030E00EC0ED9171
:10204000E227832F9927F0E0EE0FFF1FE458FF4FA0
:1020500025913491282739276150662381F7C901DA
:1020600008955E982B98882331F08FEA8EBD0DB4C9
:1020700007FEFDCF05C08EEA8EBD0DB407FEFDCF75
:102080008EB52B9A08955E982B988F7380648EBDC1
:102090000DB407FEFDCF8EB52B9A08955E982B9850
:1020A0008F70806B8EBD0DB407FEFDCF8EB52B9A61
:1020B00008955E982B98982F92959F7090619EBD81
:1020C0000DB407FEFDCF9EB52B9A2B988F708EBD59
:1020D0000DB407FEFDCF8EB52B9A08955E9A2B980E
:1020E0008EBD0DB407FEFDCF8EB52B9A08955E9878
:1020F0002B98882331F081EA8EBD0DB407FEFDCF09
:1021000005C080EA8EBD0DB407FEFDCF8EB52B9ABB
:1021100008955E982B98882331F087EA8EBD0DB420
:1021200007FEFDCF05C086EA8EBD0DB407FEFDCFCC
:102130008EB52B9A08955E982B98882331F085EA06
:102140008EBD0DB407FEFDCF05C084EA8EBD0DB473
:1021500007FEFDCF8EB52B9A08955E982B9881705F
:10216000826A8EBD0DB407FEFDCF8EB52B9A089501
:102170005E982B9882EE8EBD0DB407FEFDCF8EB516
:102180002B9A08955E982B98882331F088EC8EBDA9
:102190000DB407FEFDCF05C080EC8EBD0DB407FE6B
:1021A000FDCF8EB52B9A0895882311F488E201C0E3
:1021B0008CE261118260411181605E982B988EBD26
:1021C0000DB407FEFDCF8EB52B9A08955E982B981F
:1021D000877080628EBD0DB407FEFDCF8EB52B9A41
:1021E00008955E982B9891E89EBD0DB407FEFDCF33
:1021F0009EB52B9A8F732B988EBD0DB407FEFDCF25
:102200008EB52B9A08955E982B98882331F08DEA2D
:102210008EBD0DB407FEFDCF05C08CEA8EBD0DB49A
:1022200007FEFDCF8EB52B9A63702B986EBD0DB453
:1022300007FEFDCF8EB52B9A08955E982B9898EFE8
:102240009EBD0DB407FEFDCF9EB52B9A83702B98D3
:102250008EBD0DB407FEFDCF8EB52B9A08955E9806
:102260002B9883EE8EBD0DB407FEFDCF8EB52B9A55
:102270000895569A239A559A5E982B9A5D988CECFD
:1022800091E00197F1F700C000005D9A83E397E0C9
:102290000197F1F780E00E94AD1081E00E94771075
:1022A00080E00E94C21083E00E94E6108FE10E944D
:1022B000F11081E061E041E00E94D41080E00E94D2
:1022C000891081E060E00E94031181E00E943110DA
:1022D0000895BF92CF92DF92EF92FF920F931F93D8
:1022E000CF93DF9380320CF483C0992787FD9095BC
:1022F000809720912D0130912E01F901449150E0F9
:10230000489FE001499FD00D589FD00D1124FE0138
:1023100033962496E20FF31FD490C62EC694C6942B
:10232000C694BD2C8E01EC2CFF240CC0E0912D0135
:10233000F0912E01E00FF11F84910E946E100E0D9E
:102340001F1DBA94BB2091F780E00E946E10FC2DF7
:10235000F23008F443C0809130018F5F0E944E102C
:1023600080912F010E9459108E010F5F1F4FBD2CCD
:10237000EC2CFF240CC0E0912D01F0912E01E00F18
:10238000F11F84910E946E100E0D1F1DBA94BB2088
:1023900091F780E00E946E108C2D8230F9F08091D0
:1023A00030018E5F0E944E1080912F010E945910C3
:1023B0002296ED2C0C2D10E00CC0E0912D01F09137
:1023C0002E01EC0FFD1F84910E946E10C00FD11FD3
:1023D000EA94EE2091F780E00E946E1080912F0128
:1023E0008F5F8D0D80932F01809130010E944E10E0
:1023F000DF91CF911F910F91FF90EF90DF90CF90E1
:10240000BF9008950F931F93579A5F980E943911B8
:102410008CE792E090932E0180932D0110E0812FA4
:102420000E944E1080E00E94591004E880E00E9453
:102430006E100150D9F71F5F143089F780E00E94B9
:102440004E101092300180E00E94591010922F011E
:1024500080E00E9443101F910F910895882311F08E
:102460005F9A08955F9808951F93DF93CF930F921B
:10247000CDB7DEB7182F862F69830E944E10698171
:1024800060933001812F0E94591010932F010F90FB
:10249000CF91DF911F910895009721F090932E0125
:1024A00080932D0108951F93182F80E00E946E10D5
:1024B0001930D0F0809130018F5F0E944E108091D2
:1024C0002F010E94591080E00E946E10113160F0BF
:1024D000809130018E5F0E944E1080912F010E94EA
:1024E000591080E00E946E1080912F018F5F8093C1
:1024F0002F01809130010E944E101F910895E091AC
:102500002D01F0912E01329664910E946911089577
:102510001F93CF93DF93EC01E0912D01F0912E01F9
:102520003296149103C0612F0E946911899188230A
:10253000D1F7DF91CF911F9108951F93CF93DF9330
:10254000EC01E0912D01F0912E013296149103C01F
:10255000612F0E946911FE01219684918823C1F7A1
:10256000DF91CF911F9108950F931F93DF93CF9326
:1025700000D0CDB7DEB7FB018A01309711F4FE0120
:1025800031960115110509F46CC0883E09F44EC05E
:10259000893E70F4823059F1833020F4813009F0A3
:1025A0005BC018C0863E71F1873E09F055C031C04E
:1025B0008B3E09F449C08C3E38F4893E09F444C08E
:1025C0008A3E09F049C039C08C3EB9F18D3E09F010
:1025D00043C03AC082E090E09183808380E090E045
:1025E0000E946F18D80111969C938E9333C081E09E
:1025F00090E09183808382E090E00E946718F80168
:10260000808328C081E090E091838083E0E0F0E067
:1026100006C081E090E091838083E2E0F0E081E217
:1026200080935700E491D801EC9314C081E090E0CE
:1026300091838083E4E0F0E0F2CF81E090E0918349
:102640008083D8011C9206C081E090E09183808352
:10265000F801108281E006C0BF01A8010E946C153C
:1026600001C080E00F900F90CF91DF911F910F91EB
:102670000895813019F0823069F406C080E090E05E
:10268000BA010E948318089582E090E0642F0E94AE
:10269000751808950E94D8150895462F50E060E0FF
:1026A00070E00E9439130895AB0160E070E00E9471
:1026B000391308950E9439130895DF93CF9300D002
:1026C0000F92CDB7DEB732E039834A832B8343E0E4
:1026D0009E012F5F3F4F0E944B0E0F900F900F9067
:1026E000CF91DF910895DF93CF9300D000D0CDB785
:1026F000DEB753E059834A832B833C8344E09E0139
:102700002F5F3F4F0E944B0E0F900F900F900F9036
:10271000CF91DF9108950F931F93DF93CF9300D054
:1027200000D000D0CDB7DEB754E059834A830B8385
:102730001C832D833E8346E09E012F5F3F4F0E9406
:102740004B0E26960FB6F894DEBF0FBECDBFCF91CD
:10275000DF911F910F910895AF92BF92DF92EF9298
:10276000FF920F931F93DF93CF9300D000D000D040
:10277000CDB7DEB77C01FB0159018081823109F4BC
:1027800045C0833120F4803109F07CC007C083311B
:1027900009F441C0843109F075C048C0423008F4E2
:1027A00071C0D1801A8219828D2DBE016F5F7F4F5B
:1027B000AE014D5F5F4F0E94B412E82F082F10E06A
:1027C00020E030E00B831C832D833E8349815A81B6
:1027D0004230510571F04330510591F041305105BF
:1027E00009F050C0C701B5014D2D2E2F0E945D1379
:1027F00049C0C701B5014D2D98010E94731342C015
:10280000C701B5014D2D0E948B133CC04330D0F160
:10281000428150E008C04430A8F1428150E09381E9
:1028200080E0482B592B60E070E029C0463050F121
:10283000028110E020E030E0438150E060E070E091
:10284000762F652F542F4427848190E0A0E0B0E0DC
:10285000DC0199278827482B592B6A2B7B2B402B8F
:10286000512B622B732B858190E0A0E0B0E0B82F54
:10287000AA2799278827482B592B6A2B7B2B8181E4
:102880000E94391326960FB6F894DEBF0FBECDBF57
:10289000CF91DF911F910F91FF90EF90DF90BF904C
:1028A000AF9008953F924F925F926F927F928F9276
:1028B0009F92AF92BF92CF92DF92EF92FF920F93CF
:1028C0001F93DF93CF9300D000D0CDB7DEB72C019C
:1028D000362E69017A0130E1932E882423E0A22E5E
:1028E000B12CAC0EBD1E8E010F5F1F4F92E0692E02
:1028F000712C6C0E7D1E892D60E070E0A5010E9498
:10290000B412882309F18B819C8184159505E1F42B
:10291000892D805E60E070E0A8010E94B4128823D7
:1029200099F08981831581F4892D805C60E070E0E5
:10293000A3010E94B412882339F08A81B701A6014D
:102940000E943913882483949394892D803399F6B7
:10295000882D0F900F900F900F90CF91DF911F91C6
:102960000F91FF90EF90DF90CF90BF90AF909F902E
:102970008F907F906F905F904F903F900895219A35
:10298000299822982A9810923301109232011092BD
:1029900031010895809133018E7F80933301089532
:1029A000299A8DED90E00197F1F71A99FECF1A9BC5
:1029B000FECF87E090E070E060E021E030E01A991F
:1029C000FECF43E94A95F1F700C01A9B0AC0A9015E
:1029D000082E02C0440F551F0A94E2F7742B6F5F54
:1029E00002C01A9BFECF01974FEF8F3F940739F734
:1029F0001A99FECF83E98A95F1F700C01A9B02C0AD
:102A00006F5F02C01A9BFECF60FD42C01A99FECFD5
:102A10001A9BFECF87E090E0E0E060E021E030E04C
:102A20001A99FECF43E94A95F1F700C01A9B0AC0F4
:102A3000A901082E02C0440F551F0A94E2F7E42BA7
:102A40006F5F02C01A9BFECF01974FEF8F3F940735
:102A500039F71A99FECF83E98A95F1F700C01A9BDE
:102A600002C06F5F02C01A9BFECF60FD11C08E2FA7
:102A700090E0372F20E0822B932B909332018093AC
:102A800031018091330181608093330181E001C085
:102A900080E0299808958091310190913201089544
:102AA000609131017091320182E06F3F780710F040
:102AB0006F5F7F4F80E090E024EC39E040E050E031
:102AC0000E943418272F382F492F5527255D384A63
:102AD0004F4F5F4FC9010895EF92FF920F931F93DD
:102AE000DF93CF9300D0CDB7DEB78B017A016115AC
:102AF000710519F48E010F5F1F4FE114F10409F401
:102B00004DC021E030E0F80131832083982F9051AF
:102B1000903230F4880F805190E08050904032C065
:102B2000982F9053903220F0982F9055903248F47F
:102B3000805E90E0805090400E946718F70180838B
:102B40002BC08237A1F0833728F4803751F08137CA
:102B500029F50AC0843789F0843760F08537F1F4AD
:102B60000FC080E990E00EC082E990E00BC084E9DC
:102B700090E008C086E990E005C088E990E002C0D6
:102B80008AE990E00E946F18F7019183808382E0C8
:102B900090E0F8019183808381E001C080E00F9094
:102BA0000F90CF91DF911F910F91FF90EF900895BB
:102BB000BA01982F9051903230F4880F805190E0F4
:102BC000805090402EC0982F9053903220F0982F34
:102BD0009055903240F4805E90E080509040642F99
:102BE0000E94751808958237A1F0833728F4803742
:102BF00051F08137E9F40AC0843789F0843760F0F6
:102C00008537B1F411C080E990E00BC081E790E016
:102C100008C084E990E005C083E790E002C084E743
:102C200090E00E948318089585E790E00E94831841
:102C300008958F708A3010F0895C01C0805D0E9419
:102C40007F1208951F93182F80E30E947F1288E758
:102C50000E947F12812F82958F700E941916812FFA
:102C60008F700E9419161F910895EF92FF92CF93D3
:102C7000DF93EC0180E30E947F1288E70E947F12BD
:102C80007E018F2D82958F700E9419168F2D8F7067
:102C90000E941916CE0124E0969587952A95E1F7B2
:102CA0008F700E9419169E012F70822F0E94191694
:102CB000DF91CF91FF90EF900895CF93DF932AE6B5
:102CC000833B920708F45CC0EC01C35BDA46CE019B
:102CD00060E177E20E945318662361F070E020EF14
:102CE00038ED629FC001639F900D729F900D11247B
:102CF000C80FD91FCE0168EE73E00E945318862FCB
:102D0000662391F0E62FF0E048E15CEFE49F90014C
:102D1000E59F300DF49F300D1124C20FD31F805D4D
:102D20000E947F1221E004C080E20E947F1220E016
:102D3000CE0164E670E00E945318862F662311F4DA
:102D4000222379F0E82FF0E04CE95FEFE49F900157
:102D5000E59F300DF49F300D1124C20FD31F805D0D
:102D600001C080E20E947F128CE20E947F12CE019D
:102D70006AE070E00E945318862F805D0E947F12E7
:102D8000DF91CF910895CF92DF92EF92FF920F9350
:102D90001F93CF93DF9380E061E00E943412CFED68
:102DA000D5E0CE010E944C128091CD019091CE01D0
:102DB0000E945D1602E013E1C8010E944C1240E03F
:102DC000E42E41E0F42EC7010E948812CE010E9439
:102DD0004C1232E0C32E31E0D32EC6010E9488127D
:102DE0008DE361E00E943412CE010E944C1280916A
:102DF000C9019091CA010E945D16C8010E944C123F
:102E0000C7010E948812CE010E944C12C6010E9486
:102E10008812DF91CF911F910F91FF90EF90DF907B
:102E2000CF90089586E760E00E94341284E193E138
:102E30000E944C1284E091E00E948812089586E777
:102E400060E00E94341284E193E10E944C1286E01B
:102E500091E00E9488120895AF92BF92CF92DF92C4
:102E6000EF92FF920F931F93DF93CF93CDB7DEB70F
:102E700065970FB6F894DEBF0FBECDBF19828FEFF6
:102E80009FEF9B838A831D821C8287B1886187B9EB
:102E900088B1877E88B90E94C40F81E06EE070E03F
:102EA0000E94541381E060E070E0AE014E5F5F4F1E
:102EB0000E94B4126A817B8184E391E00E94D60D66
:102EC00084E391E060E00E94E60D2698259A279A17
:102ED000249A2C9A81E08DBD80E58CBD0E94BF14A0
:102EE000789480E760E070E049EC51E00E94B41211
:102EF0000E94021280E060E00E94341288E091E0BB
:102F00000E9488128DE360E00E94341280E191E01B
:102F10000E9488120E94C3160E941F178CE792E03D
:102F20000E944C1280E063E00E94341285E191E03F
:102F30000E9488128091380190E00E9435168BEC37
:102F400091E064E670E00E94EF0F64E0C62ED12CA1
:102F5000CC0EDD1E8E010A5F1F4F7E010894E11C1E
:102F6000F11C51E0A52EB12C84E391E00E94090EE2
:102F7000882309F44AC084E391E0B601A7019801CF
:102F80000E940C0E882309F440C049812C813D81A8
:102F90008E818630D0F48130C1F52B30310561F45B
:102FA0008091C9019091CA010A969093CA018093B9
:102FB000C9010E94C31629C0888580FF03C00E94F2
:102FC000121723C00E941F1720C0853130F484E3FC
:102FD00091E0B8010E94AC1318C0803F19F0853F02
:102FE000A1F405C0B0923501A09234010EC08091C9
:102FF000680084608093680084E391E00E94590F28
:10300000809168008B7F809368008BEC91E00E9438
:103010001210882309F4A8CF8BEC91E06AE070E0ED
:103020000E94EF0F8CE792E00E944C1280E063E078
:103030000E9434128CE191E00E9488120E94D01408
:10304000882369F00E944B150E9435160E94501586
:103050009093CE018093CD010E94C31685CF83E269
:1030600091E00E94881280CF629FD001739FF0018F
:10307000829FE00DF11D649FE00DF11D929FF00D08
:10308000839FF00D749FF00D659FF00D9927729F3F
:10309000B00DE11DF91F639FB00DE11DF91FBD01CA
:1030A000CF0111240895AA1BBB1B51E107C0AA1F21
:1030B000BB1FA617B70710F0A61BB70B881F991FD9
:1030C0005A95A9F780959095BC01CD010895F9997D
:1030D000FECF92BD81BDF89A992780B50895A8E1E9
:1030E000B0E042E050E00C948A18262FF999FECF08
:1030F0001FBA92BD81BD20BD0FB6F894FA9AF99A15
:103100000FBE019608950E947518272F0C9476180B
:10311000DC01CB01FC01F999FECF06C0F2BDE1BD97
:10312000F89A319600B40D9241505040B8F7089586
:04313000F894FFCF41
:103134002000430022002100616B7475656C6C00F3
:10314400536F6C6C00416464723A200054656D7076
:083154003A20005045525200E0
:00000001FF
