:020000023000CC
:100000000C94C8090C94E5090C94E5090C94E509D5
:100010000C94E5090C94E5090C94E5090C94E509A8
:100020000C94E5090C94E5090C94E5090C94E50998
:100030000C94E5090C94E5090C94E5090C94E50988
:100040000C94950F0C94E5090C94E5090C94E509C2
:100050000C94E7090C943A0A0C94970A0C94E5095D
:100060000C94E5090C94E5090C94E5090C94E50958
:100070000C94E5090C94E5090C94E509000089113C
:1000800012239B322446AD573665BF74488CC19D00
:100090005AAFD3BE6CCAE5DB7EE9F7F881100801E0
:1000A00093331A22A5562C47B7753E64C99C408DE0
:1000B000DBBF52AEEDDA64CBFFF976E802218B307C
:1000C000100299132667af763444BD554AADC3BCC0
:1000D000588ED19F6EEBE7FA7CC8F5D983310A20A0
:1000E00091121803A7772E66B5543C45CBBD42ACA0
:1000F000D99E508FEFFB66EAFDD874C904428D5338
:0400000300030100F5
:00000001FF
